{"abi":[{"type":"constructor","inputs":[{"name":"_usdc","type":"address","internalType":"address"},{"name":"_platformTreasury","type":"address","internalType":"address"},{"name":"_platformFeeBps","type":"uint256","internalType":"uint256"}],"stateMutability":"nonpayable"},{"type":"function","name":"MAX_RETRIES","inputs":[],"outputs":[{"name":"","type":"uint8","internalType":"uint8"}],"stateMutability":"view"},{"type":"function","name":"cancelSubscription","inputs":[{"name":"subId","type":"bytes32","internalType":"bytes32"}],"outputs":[],"stateMutability":"nonpayable"},{"type":"function","name":"getSubscription","inputs":[{"name":"subId","type":"bytes32","internalType":"bytes32"}],"outputs":[{"name":"","type":"tuple","internalType":"struct ISubscriptionManager.Subscription","components":[{"name":"subscriber","type":"address","internalType":"address"},{"name":"merchantPayout","type":"address","internalType":"address"},{"name":"planId","type":"bytes32","internalType":"bytes32"},{"name":"amount","type":"uint256","internalType":"uint256"},{"name":"interval","type":"uint256","internalType":"uint256"},{"name":"nextBillingDate","type":"uint256","internalType":"uint256"},{"name":"trialEnd","type":"uint256","internalType":"uint256"},{"name":"escrowBalance","type":"uint256","internalType":"uint256"},{"name":"settlementDeadline","type":"uint256","internalType":"uint256"},{"name":"settlementWindow","type":"uint256","internalType":"uint256"},{"name":"retryCount","type":"uint8","internalType":"uint8"},{"name":"status","type":"uint8","internalType":"enum ISubscriptionManager.Status"}]}],"stateMutability":"view"},{"type":"function","name":"isDueBilling","inputs":[{"name":"subId","type":"bytes32","internalType":"bytes32"}],"outputs":[{"name":"","type":"bool","internalType":"bool"}],"stateMutability":"view"},{"type":"function","name":"isDueSettlement","inputs":[{"name":"subId","type":"bytes32","internalType":"bytes32"}],"outputs":[{"name":"","type":"bool","internalType":"bool"}],"stateMutability":"view"},{"type":"function","name":"isSubscriptionActive","inputs":[{"name":"subId","type":"bytes32","internalType":"bytes32"}],"outputs":[{"name":"","type":"bool","internalType":"bool"}],"stateMutability":"view"},{"type":"function","name":"owner","inputs":[],"outputs":[{"name":"","type":"address","internalType":"address"}],"stateMutability":"view"},{"type":"function","name":"pause","inputs":[],"outputs":[],"stateMutability":"nonpayable"},{"type":"function","name":"paused","inputs":[],"outputs":[{"name":"","type":"bool","internalType":"bool"}],"stateMutability":"view"},{"type":"function","name":"platformFeeBps","inputs":[],"outputs":[{"name":"","type":"uint256","internalType":"uint256"}],"stateMutability":"view"},{"type":"function","name":"platformTreasury","inputs":[],"outputs":[{"name":"","type":"address","internalType":"address"}],"stateMutability":"view"},{"type":"function","name":"refund","inputs":[{"name":"subId","type":"bytes32","internalType":"bytes32"},{"name":"refundPct","type":"uint8","internalType":"uint8"}],"outputs":[],"stateMutability":"nonpayable"},{"type":"function","name":"renewFromAllowance","inputs":[{"name":"subId","type":"bytes32","internalType":"bytes32"}],"outputs":[{"name":"","type":"bool","internalType":"bool"}],"stateMutability":"nonpayable"},{"type":"function","name":"renounceOwnership","inputs":[],"outputs":[],"stateMutability":"nonpayable"},{"type":"function","name":"settlePeriod","inputs":[{"name":"subId","type":"bytes32","internalType":"bytes32"}],"outputs":[],"stateMutability":"nonpayable"},{"type":"function","name":"subscribe","inputs":[{"name":"subId","type":"bytes32","internalType":"bytes32"},{"name":"merchantPayout","type":"address","internalType":"address"},{"name":"planId","type":"bytes32","internalType":"bytes32"},{"name":"amount","type":"uint256","internalType":"uint256"},{"name":"interval","type":"uint256","internalType":"uint256"},{"name":"trialDuration","type":"uint256","internalType":"uint256"},{"name":"settlementWindow","type":"uint256","internalType":"uint256"}],"outputs":[],"stateMutability":"nonpayable"},{"type":"function","name":"subscribeWithPermit","inputs":[{"name":"activation","type":"tuple","internalType":"struct ISubscriptionManager.SubscriptionActivation","components":[{"name":"subId","type":"bytes32","internalType":"bytes32"},{"name":"subscriber","type":"address","internalType":"address"},{"name":"merchantPayout","type":"address","internalType":"address"},{"name":"planId","type":"bytes32","internalType":"bytes32"},{"name":"amount","type":"uint256","internalType":"uint256"},{"name":"interval","type":"uint256","internalType":"uint256"},{"name":"trialDuration","type":"uint256","internalType":"uint256"},{"name":"settlementWindow","type":"uint256","internalType":"uint256"},{"name":"permitValue","type":"uint256","internalType":"uint256"},{"name":"permitDeadline","type":"uint256","internalType":"uint256"},{"name":"permitV","type":"uint8","internalType":"uint8"},{"name":"permitR","type":"bytes32","internalType":"bytes32"},{"name":"permitS","type":"bytes32","internalType":"bytes32"}]}],"outputs":[],"stateMutability":"nonpayable"},{"type":"function","name":"transferOwnership","inputs":[{"name":"newOwner","type":"address","internalType":"address"}],"outputs":[],"stateMutability":"nonpayable"},{"type":"function","name":"unpause","inputs":[],"outputs":[],"stateMutability":"nonpayable"},{"type":"function","name":"updatePlatformFee","inputs":[{"name":"newFeeBps","type":"uint256","internalType":"uint256"}],"outputs":[],"stateMutability":"nonpayable"},{"type":"function","name":"updatePlatformTreasury","inputs":[{"name":"newTreasury","type":"address","internalType":"address"}],"outputs":[],"stateMutability":"nonpayable"},{"type":"function","name":"usdc","inputs":[],"outputs":[{"name":"","type":"address","internalType":"contract IERC20"}],"stateMutability":"view"},{"type":"event","name":"OwnershipTransferred","inputs":[{"name":"previousOwner","type":"address","indexed":true,"internalType":"address"},{"name":"newOwner","type":"address","indexed":true,"internalType":"address"}],"anonymous":false},{"type":"event","name":"Paused","inputs":[{"name":"account","type":"address","indexed":false,"internalType":"address"}],"anonymous":false},{"type":"event","name":"PaymentFailed","inputs":[{"name":"subId","type":"bytes32","indexed":true,"internalType":"bytes32"},{"name":"retryCount","type":"uint8","indexed":false,"internalType":"uint8"},{"name":"reason","type":"string","indexed":false,"internalType":"string"}],"anonymous":false},{"type":"event","name":"PeriodSettled","inputs":[{"name":"subId","type":"bytes32","indexed":true,"internalType":"bytes32"},{"name":"merchantShare","type":"uint256","indexed":false,"internalType":"uint256"},{"name":"platformFee","type":"uint256","indexed":false,"internalType":"uint256"}],"anonymous":false},{"type":"event","name":"PlatformFeeUpdated","inputs":[{"name":"oldFeeBps","type":"uint256","indexed":false,"internalType":"uint256"},{"name":"newFeeBps","type":"uint256","indexed":false,"internalType":"uint256"}],"anonymous":false},{"type":"event","name":"PlatformTreasuryUpdated","inputs":[{"name":"oldTreasury","type":"address","indexed":false,"internalType":"address"},{"name":"newTreasury","type":"address","indexed":false,"internalType":"address"}],"anonymous":false},{"type":"event","name":"Refunded","inputs":[{"name":"subId","type":"bytes32","indexed":true,"internalType":"bytes32"},{"name":"amount","type":"uint256","indexed":false,"internalType":"uint256"},{"name":"pct","type":"uint8","indexed":false,"internalType":"uint8"}],"anonymous":false},{"type":"event","name":"SubscriptionCancelled","inputs":[{"name":"subId","type":"bytes32","indexed":true,"internalType":"bytes32"},{"name":"refundedEscrow","type":"uint256","indexed":false,"internalType":"uint256"}],"anonymous":false},{"type":"event","name":"SubscriptionCreated","inputs":[{"name":"subId","type":"bytes32","indexed":true,"internalType":"bytes32"},{"name":"subscriber","type":"address","indexed":false,"internalType":"address"},{"name":"merchant","type":"address","indexed":false,"internalType":"address"},{"name":"planId","type":"bytes32","indexed":false,"internalType":"bytes32"}],"anonymous":false},{"type":"event","name":"SubscriptionRenewed","inputs":[{"name":"subId","type":"bytes32","indexed":true,"internalType":"bytes32"},{"name":"amount","type":"uint256","indexed":false,"internalType":"uint256"},{"name":"nextBillingDate","type":"uint256","indexed":false,"internalType":"uint256"}],"anonymous":false},{"type":"event","name":"Unpaused","inputs":[{"name":"account","type":"address","indexed":false,"internalType":"address"}],"anonymous":false},{"type":"error","name":"BillingTooEarly","inputs":[{"name":"subId","type":"bytes32","internalType":"bytes32"},{"name":"nextBillingDate","type":"uint256","internalType":"uint256"},{"name":"currentTime","type":"uint256","internalType":"uint256"}]},{"type":"error","name":"EnforcedPause","inputs":[]},{"type":"error","name":"ExpectedPause","inputs":[]},{"type":"error","name":"FeeTooHigh","inputs":[{"name":"feeBps","type":"uint256","internalType":"uint256"}]},{"type":"error","name":"InsufficientAllowance","inputs":[{"name":"subscriber","type":"address","internalType":"address"},{"name":"required","type":"uint256","internalType":"uint256"},{"name":"available","type":"uint256","internalType":"uint256"}]},{"type":"error","name":"InsufficientBalance","inputs":[{"name":"subscriber","type":"address","internalType":"address"},{"name":"required","type":"uint256","internalType":"uint256"},{"name":"available","type":"uint256","internalType":"uint256"}]},{"type":"error","name":"InvalidAddress","inputs":[]},{"type":"error","name":"InvalidAmount","inputs":[]},{"type":"error","name":"InvalidInterval","inputs":[]},{"type":"error","name":"InvalidPercentage","inputs":[{"name":"pct","type":"uint8","internalType":"uint8"}]},{"type":"error","name":"NothingInEscrow","inputs":[{"name":"subId","type":"bytes32","internalType":"bytes32"}]},{"type":"error","name":"OwnableInvalidOwner","inputs":[{"name":"owner","type":"address","internalType":"address"}]},{"type":"error","name":"OwnableUnauthorizedAccount","inputs":[{"name":"account","type":"address","internalType":"address"}]},{"type":"error","name":"ReentrancyGuardReentrantCall","inputs":[]},{"type":"error","name":"SafeERC20FailedOperation","inputs":[{"name":"token","type":"address","internalType":"address"}]},{"type":"error","name":"SettlementNotDue","inputs":[{"name":"subId","type":"bytes32","internalType":"bytes32"},{"name":"settlementDeadline","type":"uint256","internalType":"uint256"},{"name":"currentTime","type":"uint256","internalType":"uint256"}]},{"type":"error","name":"SubscriptionAlreadyExists","inputs":[{"name":"subId","type":"bytes32","internalType":"bytes32"}]},{"type":"error","name":"SubscriptionNotActive","inputs":[{"name":"subId","type":"bytes32","internalType":"bytes32"}]},{"type":"error","name":"SubscriptionNotFound","inputs":[{"name":"subId","type":"bytes32","internalType":"bytes32"}]},{"type":"error","name":"UnauthorizedCaller","inputs":[{"name":"caller","type":"address","internalType":"address"}]}],"bytecode":{"object":"0x60a060405234801562000010575f80fd5b50604051620021ee380380620021ee83398101604081905262000033916200019d565b33806200005a57604051631e4fbdf760e01b81525f60048201526024015b60405180910390fd5b620000658162000132565b5060017f9b779b17422d0df92223018b32b4d1fa46e071723d6817e2486d003becc55f00556001600160a01b038316620000b25760405163e6c4247b60e01b815260040160405180910390fd5b6001600160a01b038216620000da5760405163e6c4247b60e01b815260040160405180910390fd5b6103e881111562000102576040516303dc98a160e51b81526004810182905260240162000051565b6001600160a01b03928316608052600180546001600160a01b0319169290931691909117909155600255620001db565b5f80546001600160a01b038381166001600160a01b0319831681178455604051919092169283917f8be0079c531659141344cd1fd0a4f28419497f9722a3daafe3b4186f6b6457e09190a35050565b80516001600160a01b038116811462000198575f80fd5b919050565b5f805f60608486031215620001b0575f80fd5b620001bb8462000181565b9250620001cb6020850162000181565b9150604084015190509250925092565b608051611fad620002415f395f81816101c10152818161042201528181610c3901528181610d1d01528181610e130152818161103c0152818161158001528181611782015281816117c0015281816119ba01528181611a820152611b360152611fad5ff3fe608060405234801561000f575f80fd5b506004361061013d575f3560e01c80637241b15d116100b45780639c739b38116100795780639c739b38146102aa578063aa0b5988146102bd578063c9139353146102d0578063d21f1ffc146102e3578063e138818c146102f6578063f2fde38b14610309575f80fd5b80637241b15d146102595780638456cb591461026c5780638da5cb5b1461027457806391351c8214610284578063943d7cae14610297575f80fd5b80633e413bee116101055780633e413bee146101bc5780633f4ba83a146101fb57806346ebbdb0146102035780635450bc121461021d5780635c975abb14610240578063715018a614610251575f80fd5b8063099c1b16146101415780631a958d63146101565780631f32768e1461016957806322c9b7881461019257806322dcd13e146101a5575b5f80fd5b61015461014f366004611c81565b61031c565b005b610154610164366004611cc1565b6104a4565b61017c610177366004611d13565b6104e3565b6040516101899190611d5e565b60405180910390f35b6101546101a0366004611e11565b6105c1565b6101ae60025481565b604051908152602001610189565b6101e37f000000000000000000000000000000000000000000000000000000000000000081565b6040516001600160a01b039091168152602001610189565b610154610604565b61020b600781565b60405160ff9091168152602001610189565b61023061022b366004611d13565b610616565b6040519015158152602001610189565b5f54600160a01b900460ff16610230565b610154610706565b610154610267366004611d13565b610717565b610154610859565b5f546001600160a01b03166101e3565b610230610292366004611d13565b610869565b6101546102a5366004611e28565b6108d5565b6102306102b8366004611d13565b61096d565b6101546102cb366004611d13565b610aad565b6102306102de366004611d13565b610b1c565b6101546102f1366004611d13565b610f3e565b6001546101e3906001600160a01b031681565b610154610317366004611e28565b6110b7565b6103246110f1565b61032c61110c565b5f82815260036020526040902080546001600160a01b0316610369576040516306c8caed60e11b8152600481018490526024015b60405180910390fd5b60ff8216158061037c575060648260ff16115b1561039f5760405163bc14899760e01b815260ff83166004820152602401610360565b80600701545f036103c65760405163947e201160e01b815260048101849052602401610360565b5f60648360ff1683600701546103dc9190611e55565b6103e69190611e72565b905080826007015f8282546103fb9190611e91565b909155505060078201545f03610412575f60088301555b815461044b906001600160a01b037f00000000000000000000000000000000000000000000000000000000000000008116911683611138565b6040805182815260ff8516602082015285917f3f53756480d822ddf3ce02658d77fd50417a0e09c14a8fff7fe821c0513db7b5910160405180910390a250506104a060015f80516020611f5883398151915255565b5050565b6104ac6110f1565b6104b4611172565b6104c4338888888888888861119c565b6104da60015f80516020611f5883398151915255565b50505050505050565b6104eb611bf4565b5f8281526003602081815260409283902083516101808101855281546001600160a01b039081168252600183015416928101929092526002810154938201939093529082015460608201526004808301546080830152600583015460a0830152600683015460c0830152600783015460e08301526008830154610100808401919091526009840154610120840152600a84015460ff8082166101408601529394936101608601939290910416908111156105a7576105a7611d2a565b60048111156105b8576105b8611d2a565b90525092915050565b6105c96110f1565b6105d1611172565b6105d961110c565b6105e28161156b565b6105eb8161165f565b61060160015f80516020611f5883398151915255565b50565b61060c61110c565b6106146116a2565b565b5f81815260036020818152604080842081516101808101835281546001600160a01b039081168252600183015416938101939093526002810154918301919091529182015460608201526004808301546080830152600583015460a0830152600683015460c0830152600783015460e08301526008830154610100808401919091526009840154610120840152600a84015460ff80821661014086015286959361016086019390920416908111156106d0576106d0611d2a565b60048111156106e1576106e1611d2a565b8152505090505f8160e001511180156106ff57508061010001514210155b9392505050565b61070e61110c565b6106145f6116f6565b61071f6110f1565b610727611172565b61072f61110c565b5f81815260036020526040902080546001600160a01b0316610767576040516306c8caed60e11b815260048101839052602401610360565b80600701545f0361078e5760405163947e201160e01b815260048101839052602401610360565b80600801544210156107c957600881015460405163280c2a8360e01b8152600481018490526024810191909152426044820152606401610360565b6007810180545f918290556008830182905590806107e683611745565b60018601549193509150610804906001600160a01b03168383611775565b604080518381526020810183905286917f6e5200456a670412681294f6745f1f99a9778c6eb93315d9dfa87feb99f13621910160405180910390a25050505061060160015f80516020611f5883398151915255565b61086161110c565b6106146117e9565b5f818152600360205260408120600a0154610100900460ff16600181600481111561089657610896611d2a565b14806108b3575060028160048111156108b1576108b1611d2a565b145b806106ff575060038160048111156108cd576108cd611d2a565b149392505050565b6108dd61110c565b6001600160a01b0381166109045760405163e6c4247b60e01b815260040160405180910390fd5b600154604080516001600160a01b03928316815291831660208301527ff3814cc4b6220f5bf02409e4cebe75e5032fdb20cef0db459431fd5cba574b93910160405180910390a1600180546001600160a01b0319166001600160a01b0392909216919091179055565b5f81815260036020818152604080842081516101808101835281546001600160a01b039081168252600183015416938101939093526002810154918301919091529182015460608201526004808301546080830152600583015460a0830152600683015460c0830152600783015460e08301526008830154610100808401919091526009840154610120840152600a84015460ff8082166101408601528695936101608601939092041690811115610a2757610a27611d2a565b6004811115610a3857610a38611d2a565b905250905060018161016001516004811115610a5657610a56611d2a565b1480610a78575060028161016001516004811115610a7657610a76611d2a565b145b80610a99575060038161016001516004811115610a9757610a97611d2a565b145b80156106ff575060a0015142101592915050565b610ab561110c565b6103e8811115610adb576040516303dc98a160e51b815260048101829052602401610360565b60025460408051918252602082018390527fd347e206f25a89b917fc9482f1a2d294d749baa4dc9bde7fb495ee11fe491643910160405180910390a1600255565b5f610b256110f1565b610b2d611172565b610b3561110c565b5f82815260036020526040902080546001600160a01b0316610b6d576040516306c8caed60e11b815260048101849052602401610360565b6004600a820154610100900460ff166004811115610b8d57610b8d611d2a565b1480610bb557505f600a820154610100900460ff166004811115610bb357610bb3611d2a565b145b15610bd55760405162191d2960e11b815260048101849052602401610360565b8060050154421015610c1057600581015460405163349a931d60e01b8152600481018590526024810191909152426044820152606401610360565b8054604051636eb1769f60e11b81526001600160a01b0391821660048201523060248201525f917f0000000000000000000000000000000000000000000000000000000000000000169063dd62ed3e90604401602060405180830381865afa158015610c7e573d5f803e3d5ffd5b505050506040513d601f19601f82011682018060405250810190610ca29190611ea4565b90508160030154811015610cfa57610cf082856040518060400160405280601b81526020017f496e73756666696369656e74205553444320616c6c6f77616e6365000000000081525061182b565b5f92505050610f23565b81546040516370a0823160e01b81526001600160a01b0391821660048201525f917f000000000000000000000000000000000000000000000000000000000000000016906370a0823190602401602060405180830381865afa158015610d62573d5f803e3d5ffd5b505050506040513d601f19601f82011682018060405250810190610d869190611ea4565b90508260030154811015610ddf57610dd483866040518060400160405280601981526020017f496e73756666696369656e7420555344432062616c616e63650000000000000081525061182b565b5f9350505050610f23565b5f6001600a850154610100900460ff166004811115610e0057610e00611d2a565b85546003870154929091149250610e47917f00000000000000000000000000000000000000000000000000000000000000006001600160a01b0390811692169030906118c6565b8015610e82578360030154846007015f828254610e649190611ebb565b90915550506009840154610e789042611ebb565b6008850155610eb2565b5f80610e918660030154611745565b60018801549193509150610eaf906001600160a01b03168383611775565b50505b600a8401805461ffff19166102001790556004840154610ed29042611ebb565b60058501819055600385015460408051918252602082019290925287917f2bf8cf700ec41cab7b38028eea5d596ec1f344384ed6f003f9428775523950cf910160405180910390a260019450505050505b610f3960015f80516020611f5883398151915255565b919050565b610f466110f1565b5f81815260036020526040902080546001600160a01b0316610f7e576040516306c8caed60e11b815260048101839052602401610360565b6004600a820154610100900460ff166004811115610f9e57610f9e611d2a565b03610fbe5760405162191d2960e11b815260048101839052602401610360565b80546001600160a01b03163314801590610fe257505f546001600160a01b03163314155b156110025760405163d86ad9cf60e01b8152336004820152602401610360565b6007810180545f918290556008830191909155600a8201805461ff0019166104001790558015611065578154611065906001600160a01b037f00000000000000000000000000000000000000000000000000000000000000008116911683611138565b827fbb4f0dbdc96de2d877e081023e973592b695eec37810f9904634c44b0dedac6a8260405161109791815260200190565b60405180910390a2505061060160015f80516020611f5883398151915255565b6110bf61110c565b6001600160a01b0381166110e857604051631e4fbdf760e01b81525f6004820152602401610360565b610601816116f6565b6110f9611902565b60025f80516020611f5883398151915255565b5f546001600160a01b031633146106145760405163118cdaa760e01b8152336004820152602401610360565b6111458383836001611931565b61116d57604051635274afe760e01b81526001600160a01b0384166004820152602401610360565b505050565b5f54600160a01b900460ff16156106145760405163d93c066560e01b815260040160405180910390fd5b5f878152600360205260409020546001600160a01b0316156111d4576040516354c1677160e01b815260048101889052602401610360565b835f036111f45760405163162908e360e11b815260040160405180910390fd5b825f03611214576040516305fabb6160e41b815260040160405180910390fd5b6001600160a01b03861661123b5760405163e6c4247b60e01b815260040160405180910390fd5b81158015906113af575f61124f8442611ebb565b90506040518061018001604052808b6001600160a01b03168152602001896001600160a01b031681526020018881526020018781526020018681526020018281526020018281526020015f81526020015f81526020018481526020015f60ff168152602001600160048111156112c7576112c7611d2a565b90525f8a815260036020818152604092839020845181546001600160a01b03199081166001600160a01b0392831617835592860151600183018054909416911617909155918301516002830155606083015190820155608082015160048083019190915560a0830151600583015560c0830151600683015560e083015160078301556101008084015160088401556101208401516009840155610140840151600a8401805460ff19811660ff909316928317825561016087015194919361ffff19909116909217919084908111156113a1576113a1611d2a565b021790555090505050611513565b6113b98986611993565b6040518061018001604052808a6001600160a01b03168152602001886001600160a01b0316815260200187815260200186815260200185815260200185426114019190611ebb565b81525f60208201526040810187905260600161141d8442611ebb565b8152602081018490525f6040820152606001600290525f89815260036020818152604092839020845181546001600160a01b03199081166001600160a01b0392831617835592860151600183018054909416911617909155918301516002830155606083015190820155608082015160048083019190915560a0830151600583015560c0830151600683015560e083015160078301556101008084015160088401556101208401516009840155610140840151600a8401805460ff19811660ff909316928317825561016087015194919361ffff199091169092179190849081111561150b5761150b611d2a565b021790555050505b604080516001600160a01b03808c1682528916602082015290810187905288907fa998206d3f9571cdf82fbc1b76fd64abea3102c38eb665f6477ad67a48d7672a9060600160405180910390a2505050505050505050565b61010081013515610601576001600160a01b037f00000000000000000000000000000000000000000000000000000000000000001663d505accf6115b56040840160208501611e28565b306101008501356101208601356115d461016088016101408901611ece565b6040516001600160e01b031960e088901b1681526001600160a01b0395861660048201529490931660248501526044840191909152606483015260ff16608482015261016084013560a482015261018084013560c482015260e4015f604051808303815f87803b158015611646575f80fd5b505af1925050508015611657575060015b156106015750565b6106016116726040830160208401611e28565b82356116846060850160408601611e28565b846060013585608001358660a001358760c001358860e0013561119c565b6116aa611b5e565b5f805460ff60a01b191690557f5db9ee0a495bf2e6ff9c91a7834c1ba4fdd244a5e8aa4e537bd38aeae4b073aa335b6040516001600160a01b03909116815260200160405180910390a1565b5f80546001600160a01b038381166001600160a01b0319831681178455604051919092169283917f8be0079c531659141344cd1fd0a4f28419497f9722a3daafe3b4186f6b6457e09190a35050565b5f80612710600254846117589190611e55565b6117629190611e72565b905061176e8184611e91565b9150915091565b6117a96001600160a01b037f0000000000000000000000000000000000000000000000000000000000000000168484611138565b801561116d5760015461116d906001600160a01b037f00000000000000000000000000000000000000000000000000000000000000008116911683611138565b6117f1611172565b5f805460ff60a01b1916600160a01b1790557f62e78cea01bee320cd4e420270b5ea74000d11b0c9f74754ebdbfc544b05a2586116d93390565b600a8301805461030061ff0019821617909155600760ff909116101561187e57600a83018054600191905f9061186590849060ff16611ee7565b92506101000a81548160ff021916908360ff1602179055505b600a83015460405183917fbdf690c02a711076e0ededb10575adbb9cb85e74153417ce9123134943c9068a916118b99160ff16908590611f00565b60405180910390a2505050565b6118d4848484846001611b87565b6118fc57604051635274afe760e01b81526001600160a01b0385166004820152602401610360565b50505050565b5f80516020611f588339815191525460020361061457604051633ee5aeb560e01b815260040160405180910390fd5b60405163a9059cbb60e01b5f8181526001600160a01b038616600452602485905291602083604481808b5af1925060015f5114831661198757838315161561197b573d5f823e3d81fd5b5f873b113d1516831692505b60405250949350505050565b604051636eb1769f60e11b81526001600160a01b0383811660048301523060248301525f917f00000000000000000000000000000000000000000000000000000000000000009091169063dd62ed3e90604401602060405180830381865afa158015611a01573d5f803e3d5ffd5b505050506040513d601f19601f82011682018060405250810190611a259190611ea4565b905081811015611a6157604051630c95cf2760e11b81526001600160a01b03841660048201526024810183905260448101829052606401610360565b6040516370a0823160e01b81526001600160a01b0384811660048301525f917f0000000000000000000000000000000000000000000000000000000000000000909116906370a0823190602401602060405180830381865afa158015611ac9573d5f803e3d5ffd5b505050506040513d601f19601f82011682018060405250810190611aed9190611ea4565b905082811015611b295760405163db42144d60e01b81526001600160a01b03851660048201526024810184905260448101829052606401610360565b6118fc6001600160a01b037f0000000000000000000000000000000000000000000000000000000000000000168530866118c6565b5f54600160a01b900460ff1661061457604051638dfc202b60e01b815260040160405180910390fd5b6040516323b872dd60e01b5f8181526001600160a01b038781166004528616602452604485905291602083606481808c5af1925060015f51148316611be3578383151615611bd7573d5f823e3d81fd5b5f883b113d1516831692505b604052505f60605295945050505050565b6040518061018001604052805f6001600160a01b031681526020015f6001600160a01b031681526020015f80191681526020015f81526020015f81526020015f81526020015f81526020015f81526020015f81526020015f81526020015f60ff1681526020015f6004811115611c6c57611c6c611d2a565b905290565b803560ff81168114610f39575f80fd5b5f8060408385031215611c92575f80fd5b82359150611ca260208401611c71565b90509250929050565b80356001600160a01b0381168114610f39575f80fd5b5f805f805f805f60e0888a031215611cd7575f80fd5b87359650611ce760208901611cab565b96999698505050506040850135946060810135946080820135945060a0820135935060c0909101359150565b5f60208284031215611d23575f80fd5b5035919050565b634e487b7160e01b5f52602160045260245ffd5b60058110611d5a57634e487b7160e01b5f52602160045260245ffd5b9052565b81516001600160a01b0316815261018081016020830151611d8a60208401826001600160a01b03169052565b5060408301516040830152606083015160608301526080830151608083015260a083015160a083015260c083015160c083015260e083015160e083015261010080840151818401525061012080840151818401525061014080840151611df48285018260ff169052565b505061016080840151611e0982850182611d3e565b505092915050565b5f6101a08284031215611e22575f80fd5b50919050565b5f60208284031215611e38575f80fd5b6106ff82611cab565b634e487b7160e01b5f52601160045260245ffd5b8082028115828204841417611e6c57611e6c611e41565b92915050565b5f82611e8c57634e487b7160e01b5f52601260045260245ffd5b500490565b81810381811115611e6c57611e6c611e41565b5f60208284031215611eb4575f80fd5b5051919050565b80820180821115611e6c57611e6c611e41565b5f60208284031215611ede575f80fd5b6106ff82611c71565b60ff8181168382160190811115611e6c57611e6c611e41565b60ff831681525f60206040602084015283518060408501525f5b81811015611f3657858101830151858201606001528201611f1a565b505f606082860101526060601f19601f83011685010192505050939250505056fe9b779b17422d0df92223018b32b4d1fa46e071723d6817e2486d003becc55f00a264697066735822122047b2ed7a7e49035d1ad94dba5cfef2d65dc13c84ff34ae22135315fc79bf9d9664736f6c63430008180033","linkReferences":{}},"methodIdentifiers":{"MAX_RETRIES()":"46ebbdb0","cancelSubscription(bytes32)":"d21f1ffc","getSubscription(bytes32)":"1f32768e","isDueBilling(bytes32)":"9c739b38","isDueSettlement(bytes32)":"5450bc12","isSubscriptionActive(bytes32)":"91351c82","owner()":"8da5cb5b","pause()":"8456cb59","paused()":"5c975abb","platformFeeBps()":"22dcd13e","platformTreasury()":"e138818c","refund(bytes32,uint8)":"099c1b16","renewFromAllowance(bytes32)":"c9139353","renounceOwnership()":"715018a6","settlePeriod(bytes32)":"7241b15d","subscribe(bytes32,address,bytes32,uint256,uint256,uint256,uint256)":"1a958d63","subscribeWithPermit((bytes32,address,address,bytes32,uint256,uint256,uint256,uint256,uint256,uint256,uint8,bytes32,bytes32))":"22c9b788","transferOwnership(address)":"f2fde38b","unpause()":"3f4ba83a","updatePlatformFee(uint256)":"aa0b5988","updatePlatformTreasury(address)":"943d7cae","usdc()":"3e413bee"},"id":32}